:020000040800F2
:100000000000012071080008F9070008FF07000838
:10001000050800080B08000811080008000000008F
:1000200000000000000000000000000017080008A9
:1000300025080008000000003308000841080008F7
:10004000C1080008C1080008C1080008C10800086C
:10005000C1080008C1080008C1080008C10800085C
:10006000C1080008C1080008C1080008C10800084C
:10007000C1080008C1080008C1080008C10800083C
:10008000C1080008C1080008C108000800000000FD
:10009000000000000000000000000000C10800088F
:1000A000C1080008C1080008C1080008C10800080C
:1000B000C1080008C1080008C1080008C1080008FC
:1000C000C1080008C1080008C1080008C1080008EC
:1000D000C1080008C1080008C108000800000000AD
:1000E000C1080008C1080008C1080008000000009D
:1000F000000000000000000000000000C10800082F
:1001000000000000C1080008C1080008C10800087C
:1001100000000000000000000000000000000000DF
:10012000C1080008C1080008C1080008C10800088B
:10013000C1080008000000000000000000000000EE
:10014000000000000000000000000000C1080008DE
:10015000C1080008C1080008C1080008C10800085B
:10016000C1080008C10800080000000000000000ED
:10017000000000000000000000000000000000007F
:1001800000000000C108000800000000000000009E
:04019000C10800089A
:1001940010B5054C237833B9044B13B10448AFF3BD
:1001A40000800123237010BD0C000020000000001B
:1001B4002820000808B5034B1BB103490348AFF3DB
:1001C400008008BD00000000100000202820000866
:1001D40053B94AB9002908BF00281CBF4FF0FF31AA
:1001E4004FF0FF3000F070B9ADF1080C6DE904CEAA
:1001F40000F006F8DDF804E0DDE9022304B07047FE
:100204002DE9F047089E0D4604460F46002B4AD1BF
:100214008A42944665D9B2FA82F343B102FA03FCE6
:10022400C3F120029F4020FA02F217439C404FEA98
:100234001C4E1FFA8CF5B7FBFEF1220C0EFB117756
:1002440042EA074201FB05F090420AD91CEB020284
:1002540001F1FF3780F01C81904240F2198102398C
:100264006244121AA4B2B2FBFEF00EFB102244EA5E
:10027400024400FB05F5A5420AD91CEB040400F175
:10028400FF3280F00781A54240F2048164440238C1
:1002940040EA0140641B00211EB1DC400023C6E992
:1002A4000043BDE8F0878B4208D9002E00F0ED80B2
:1002B4000021C6E900050846BDE8F087B3FA83F1DA
:1002C400002949D1AB4202D3824200F2F880841A59
:1002D40065EB030201201746002EE2D0C6E9004771
:1002E400DFE702B9FFDEB2FA82F3002B40F0908020
:1002F4008A1A4FEA1C471FFA8CFE0121B2FBF7F55C
:1003040007FB1520220C42EA00420EFB05F0904246
:1003140008D91CEB020205F1FF3802D2904200F228
:10032400CB804546121AA4B2B2FBF7F007FB1022A9
:1003340044EA02440EFB00FEA64508D91CEB040463
:1003440000F1FF3202D2A64500F2BB801046A4EBB6
:100354000E0440EA05409FE7C1F120078B4022FAD2
:1003640007FC4CEA030C05FA01F420FA07F3FD40FC
:100374004FEA1C492343B5FBF9F81FFA8CFE09FB2D
:1003840018551C0C44EA054408FB0EF5A54202FA74
:1003940001F200FA01F00BD91CEB040408F1FF3A56
:1003A40080F08880A54240F28580A8F10208644468
:1003B400641B9DB2B4FBF9F309FB134445EA0444FE
:1003C40003FB0EFEA64508D91CEB040403F1FF351C
:1003D4006CD2A6456AD9023B644443EA0843A3FBB2
:1003E4000295A4EB0E04AC42C846AE4656D353D095
:1003F40056B1B0EB080264EB0E0404FA07F7CA40E6
:10040400CC401743C6E9007418460021BDE8F087C4
:10041400C3F1200102FA03FC20FA01F225FA01F1EA
:100424009D402A434FEA1C471FFA8CFEB1FBF7F0AC
:1004340007FB1015110C41EA054100FB0EF58D4236
:1004440004FA03F408D91CEB010100F1FF382FD2A0
:100454008D422DD902386144491B92B2B1FBF7F5A4
:1004640007FB151142EA014205FB0EF1914208D93E
:100474001CEB020205F1FF3816D2914214D9023D59
:100484006244521A45EA004138E73146304608E7EB
:100494003946E6E61046FBE64845A9D2B9EB020820
:1004A40065EB0C0E013BA3E74546EAE72B4694E7D0
:1004B4004046D1E7D0467BE7023D624432E7084636
:1004C4000AE76444023842E7704700BF80B500AFD2
:1004D40000F0F6F900F054F800F0E4F800F0B0F899
:1004E400142301222349244801F08DF9214B1B7860
:1004F400013B052BF4D801A252F823F05105000862
:100504005D0500086905000845050008190500088F
:100514002F05000801220121184800F0ADFC01223A
:100524000221164800F0A8FC23E000220121134810
:1005340000F0A2FC00220221104800F09DFC18E00B
:10054400012201210D4800F097FC12E00022012154
:100554000A4800F091FC0CE001220221074800F057
:100564008BFC06E000220221044800F085FC00BF59
:10057400B6E7B5E780000020280000200000024014
:1005840080B594B000AF07F1200330220021184653
:1005940001F01CFD07F10C0300221A605A609A60F6
:1005A400DA601A610023BB60234B1B6C224A43F0C0
:1005B40080531364204B1B6C03F08053BB60BB68F7
:1005C40000237B601D4B1B6823F440431B4A43F408
:1005D40000431360194B1B6803F440437B607B6842
:1005E40002233B620123FB6210233B630023BB63B2
:1005F40007F12003184600F059FC0346002B01D0F4
:1006040000F082F80F23FB6000233B6100237B6131
:100614000023BB610023FB6107F10C030021184692
:1006240000F0BCFE0346002B01D000F06DF800BFC3
:100634005037BD4680BD00BF003802400070004006
:1006440080B500AF154B164A1A60144B00225A604D
:10065400124B00229A60114B0022DA600F4B0022E9
:100664001A610E4B00225A610C4B00229A610B4B0B
:1006740000221A62094B00225A62084B00229A6235
:10068400064B0A22DA62054801F034F80346002BCF
:1006940001D000F039F800BF80BD00BF2800002061
:1006A4000030014080B586B000AF3B1D00221A60C7
:1006B4005A609A60DA601A6100233B60104B1B6B2E
:1006C4000F4A43F0010313630D4B1B6B03F001034B
:1006D4003B603B68002203210A4800F0CDFB032362
:1006E4007B600123BB600023FB6000233B613B1D57
:1006F4001946044800F03CFA00BF1837BD4680BDD7
:10070400003802400000024080B400AF72B600BF5F
:10071400FEE7000080B483B000AF00237B60104B81
:100724005B6C0F4A43F4804353640D4B5B6C03F4DE
:1007340080437B607B6800233B60094B1B6C084A49
:1007440043F080531364064B1B6C03F080533B60EF
:100754003B6800BF0C37BD465DF8047B704700BFA3
:100764000038024080B58AB000AF786007F1140306
:1007740000221A605A609A60DA601A617B681B680A
:10078400194A93422BD100233B61184B5B6C174AE7
:1007940043F480535364154B5B6C03F480533B6107
:1007A4003B690023FB60114B1B6B104A43F00103B0
:1007B40013630E4B1B6B03F00103FB60FB68F02318
:1007C4007B610223BB610023FB6103233B6205239E
:1007D4007B6207F114031946054800F0C9F900BF0C
:1007E4002837BD4680BD00BF0030014000380240BC
:1007F4000000024080B400AFFEE780B400AFFEE723
:1008040080B400AFFEE780B400AFFEE780B400AF71
:10081400FEE780B400AF00BFBD465DF8047B7047BF
:1008240080B400AF00BFBD465DF8047B704780B460
:1008340000AF00BFBD465DF8047B704780B500AFD4
:1008440000F090F800BF80BD80B400AF064BD3F831
:100854008830054A43F47003C2F8883000BFBD46AF
:100864005DF8047B704700BF00ED00E0DFF834D092
:100874000D480E490E4A002302E0D458C4500433F4
:10088400C4188C42F9D30B4A0B4C002301E01360CB
:100894000432A242FBD3FFF7D7FF01F09FFBFFF71F
:1008A40015FE704700000120000000200C0000200D
:1008B400602000080C00002088000020FEE70000F3
:1008C40080B500AF0E4B1B680D4A43F400731360F0
:1008D4000B4B1B680A4A43F480631360084B1B6884
:1008E400074A43F480731360032000F00DF90F20CE
:1008F40000F008F8FFF70EFF0023184680BD00BF84
:10090400003C024080B582B000AF7860124B1A6898
:10091400124B1B7819464FF47A73B3FBF1F3B2FB15
:10092400F3F3184600F017F90346002B01D0012316
:100934000EE07B680F2B0AD8002279684FF0FF3055
:1009440000F0EDF8064A7B681360002300E0012301
:1009540018460837BD4680BD00000020080000206E
:100964000400002080B400AF064B1B781A46064BE7
:100974001B681344044A136000BFBD465DF8047B42
:10098400704700BF080000208400002080B400AF3E
:10099400034B1B681846BD465DF8047B704700BFD7
:1009A4008400002080B485B000AF78607B6803F0D9
:1009B4000703FB600C4BDB68BB60BA684FF6FF03B0
:1009C4001340BB60FB681A02BB68134343F0BF6368
:1009D40043F40033BB60044ABB68D36000BF1437E0
:1009E400BD465DF8047B704700ED00E080B400AFC5
:1009F400044BDB681B0A03F007031846BD465DF889
:100A0400047B704700ED00E080B483B000AF034680
:100A14003960FB7197F90730002B0ADB3B68DAB2C7
:100A24000C4997F907301201D2B20B4483F8002322
:100A34000AE03B68DAB20849FB7903F00F03043B90
:100A44001201D2B20B441A7600BF0C37BD465DF8D2
:100A5400047B704700E100E000ED00E080B489B061
:100A640000AFF860B9607A60FB6803F00703FB61CC
:100A7400FB69C3F10703042B28BF0423BB61FB6993
:100A84000433062B02D9FB69033B00E000237B619E
:100A94004FF0FF32BB6902FA03F3DA43BB681A4032
:100AA4007B699A404FF0FF317B6901FA03F3D94324
:100AB4007B680B40134318462437BD465DF8047B1E
:100AC4007047000080B582B000AF78607B68013B5E
:100AD400B3F1807F01D301230FE00A4A7B68013B15
:100AE40053600F214FF0FF30FFF78EFF054B0022BC
:100AF4009A60044B07221A60002318460837BD4643
:100B040080BD00BF10E000E080B582B000AF786027
:100B14007868FFF747FF00BF0837BD4680BD80B542
:100B240086B000AF0346B9607A60FB7300237B6133
:100B3400FFF75CFF78617A68B9687869FFF78EFF20
:100B4400024697F90F3011461846FFF75DFF00BFC4
:100B54001837BD4680BD80B582B000AF7860786834
:100B6400FFF7B0FF034618460837BD4680BD0000B6
:100B740080B489B000AF7860396000237B610023C2
:100B84003B610023BB610023FB6159E10122FB6946
:100B940002FA03F37B613B681B687A6913403B618B
:100BA4003A697B699A4240F048813B685B6803F08C
:100BB4000303012B05D03B685B6803F00303022B9E
:100BC40030D17B689B68BB61FB695B00032202FA3E
:100BD40003F3DB43BA691340BB613B68DA68FB6922
:100BE4005B0002FA03F3BA691343BB617B68BA6919
:100BF4009A607B685B68BB610122FB6902FA03F3BC
:100C0400DB43BA691340BB613B685B681B0903F0B3
:100C14000102FB6902FA03F3BA691343BB617B68FF
:100C2400BA695A603B685B6803F00303032B17D06F
:100C34007B68DB68BB61FB695B00032202FA03F398
:100C4400DB43BA691340BB613B689A68FB695B008C
:100C540002FA03F3BA691343BB617B68BA69DA60C9
:100C64003B685B6803F00303022B23D1FB69DA08BA
:100C74007B68083253F82230BB61FB6903F0070339
:100C84009B000F2202FA03F3DB43BA691340BB61F2
:100C94003B681A69FB6903F007039B0002FA03F33C
:100CA400BA691343BB61FB69DA087B680832B96926
:100CB40043F822107B681B68BB61FB695B0003225D
:100CC40002FA03F3DB43BA691340BB613B685B6818
:100CD40003F00302FB695B0002FA03F3BA691343EE
:100CE400BB617B68BA691A603B685B6803F4403394
:100CF400002B00F0A2800023FB60574B5B6C564A2C
:100D040043F480435364544B5B6C03F48043FB60B3
:100D1400FB68524AFB699B08023352F82330BB61DB
:100D2400FB6903F003039B000F2202FA03F3DB4386
:100D3400BA691340BB617B68494A934219D07B6806
:100D4400484A934213D07B68474A93420DD07B684C
:100D5400464A934207D07B68454A934201D1042313
:100D640008E0072306E0032304E0022302E0012352
:100D740000E00023FA6902F0030292009340BA698A
:100D84001343BB613549FB699B080233BA6941F8D7
:100D94002320384B9B68BB613B69DB43BA69134032
:100DA400BB613B685B6803F48013002B03D0BA6912
:100DB4003B691343BB612F4ABB6993602D4BDB68CE
:100DC400BB613B69DB43BA691340BB613B685B6849
:100DD40003F40013002B03D0BA693B691343BB61CE
:100DE400244ABB69D360234B5B68BB613B69DB432B
:100DF400BA691340BB613B685B6803F40033002BA2
:100E040003D0BA693B691343BB611A4ABB69536097
:100E1400184B1B68BB613B69DB43BA691340BB6178
:100E24003B685B6803F48033002B03D0BA693B69E9
:100E34001343BB610F4ABB691360FB690133FB6158
:100E4400FB690F2B7FF6A2AE00BF00BF2437BD465F
:100E54005DF8047B704700BF003802400038014051
:100E6400000002400004024000080240000C02405E
:100E740000100240003C014080B483B000AF7860B1
:100E84000B467B8013467B707B78002B03D07A88DB
:100E94007B689A6103E07B881A047B689A6100BFCF
:100EA4000C37BD465DF8047B7047000080B586B002
:100EB40000AF78607B68002B01D1012367E27B6877
:100EC4001B6803F00103002B75D0884B9B6803F06B
:100ED4000C03042B0CD0854B9B6803F00C03082BEC
:100EE40012D1824B5B6803F48003B3F5800F0BD1FE
:100EF4007E4B1B6803F40033002B5BD07B685B687C
:100F0400002B57D1012342E27B685B68B3F5803F35
:100F140006D1764B1B68754A43F4803313601DE099
:100F24007B685B68B3F5A02F0CD1704B1B686F4ACC
:100F340043F4802313606D4B1B686C4A43F4803385
:100F440013600BE0694B1B68684A23F48033136019
:100F5400664B1B68654A23F4802313607B685B68D7
:100F6400002B13D0FFF712FD386108E0FFF70EFDE8
:100F740002463B69D31A642B01D9032307E25B4B76
:100F84001B6803F40033002BF0D014E0FFF7FEFCE1
:100F9400386108E0FFF7FAFC02463B69D31A642B78
:100FA40001D90323F3E1514B1B6803F40033002BF5
:100FB400F0D100E000BF7B681B6803F00203002B44
:100FC40063D04A4B9B6803F00C03002B0BD0474BB8
:100FD4009B6803F00C03082B1CD1444B5B6803F49F
:100FE4008003002B16D1414B1B6803F00203002B36
:100FF40005D07B68DB68012B01D00123C7E13B4BA3
:101004001B6823F0F8027B681B69DB003749134334
:101014000B603AE07B68DB68002B20D0344B012264
:101024001A60FFF7B3FC386108E0FFF7AFFC024633
:101034003B69D31A022B01D90323A8E12B4B1B686C
:1010440003F00203002BF0D0284B1B6823F0F802B6
:101054007B681B69DB00254913430B6015E0244BB7
:1010640000221A60FFF792FC386108E0FFF78EFC5B
:1010740002463B69D31A022B01D9032387E11B4B98
:101084001B6803F00203002BF0D17B681B6803F09C
:101094000803002B36D07B685B69002B16D0154BF8
:1010A40001221A60FFF772FC386108E0FFF76EFC5A
:1010B40002463B69D31A022B01D9032367E10B4B88
:1010C4005B6F03F00203002BF0D01BE0094B0022FE
:1010D4001A60FFF75BFC38610EE0FFF757FC02462D
:1010E4003B69D31A022B07D9032350E1003802408D
:1010F40000004742800E4742884B5B6F03F00203B7
:10110400002BEAD17B681B6803F00403002B00F07A
:1011140097800023FB75814B1B6C03F08053002BDD
:101124000FD10023BB607D4B1B6C7C4A43F0805382
:1011340013647A4B1B6C03F08053BB60BB680123C0
:10114400FB75774B1B6803F48073002B18D1744B29
:101154001B68734A43F480731360FFF717FC38610C
:1011640008E0FFF713FC02463B69D31A022B01D9AE
:1011740003230CE16A4B1B6803F48073002BF0D04B
:101184007B689B68012B06D1644B1B6F634A43F059
:10119400010313671CE07B689B68052B0CD15F4B34
:1011A4001B6F5E4A43F0040313675C4B1B6F5B4A7F
:1011B40043F0010313670BE0584B1B6F574A23F0AE
:1011C40001031367554B1B6F544A23F00403136741
:1011D4007B689B68002B15D0FFF7D8FB38610AE0C9
:1011E400FFF7D4FB02463B69D31A41F2883293429B
:1011F40001D90323CBE0494B1B6F03F00203002BFF
:10120400EED014E0FFF7C2FB38610AE0FFF7BEFB43
:1012140002463B69D31A41F28832934201D903232F
:10122400B5E03E4B1B6F03F00203002BEED1FB7DB8
:10123400012B05D1394B1B6C384A23F080531364BE
:101244007B689B69002B00F0A180344B9B6803F002
:101254000C03082B5CD07B689B69022B41D1314B7A
:1012640000221A60FFF792FB386108E0FFF78EFB5B
:1012740002463B69D31A022B01D9032387E0274B8B
:101284001B6803F00073002BF0D17B68DA697B687C
:101294001B6A1A437B685B6A9B011A437B689B6ADF
:1012A4005B08013B1B041A437B68DB6A1B061B4972
:1012B40013434B601B4B01221A60FFF767FB386135
:1012C40008E0FFF763FB02463B69D31A022B01D9FE
:1012D40003235CE0114B1B6803F00073002BF0D078
:1012E40054E0104B00221A60FFF750FB386108E00D
:1012F400FFF74CFB02463B69D31A022B01D90323A7
:1013040045E0064B1B6803F00073002BF0D13DE071
:101314007B689B69012B07D1012338E00038024028
:1013240000700040600047421B4B5B68FB607B68B9
:101334009B69012B28D0FB6803F480027B68DB697E
:101344009A4221D1FB6803F03F027B681B6A9A42F0
:101354001AD1FA6847F6C07313407A68526A920148
:10136400934211D1FB6803F440327B689B6A5B08AB
:10137400013B1B049A4207D1FB6803F070627B684F
:10138400DB6A1B069A4201D0012300E000231846C1
:101394001837BD4680BD00BF0038024080B584B018
:1013A40000AF786039607B68002B01D10123CCE069
:1013B400684B1B6803F007033A689A420CD9654BE3
:1013C4003A68D2B21A70634B1B6803F007033A6899
:1013D4009A4201D00123B8E07B681B6803F0020342
:1013E400002B20D07B681B6803F00403002B05D07E
:1013F400594B9B68584A43F4E05393607B681B68DD
:1014040003F00803002B05D0534B9B68524A43F466
:1014140060439360504B9B6823F0F0027B689B68A9
:101424004D4913438B607B681B6803F00103002B59
:1014340044D07B685B68012B07D1474B1B6803F4DE
:101444000033002B19D101237FE07B685B68022BFA
:1014540003D07B685B68032B07D13F4B1B6803F009
:101464000073002B09D101236FE03B4B1B6803F091
:101474000203002B01D1012367E0374B9B6823F063
:1014840003027B685B68344913438B60FFF77EFA81
:10149400F8600AE0FFF77AFA0246FB68D31A41F2D1
:1014A4008832934201D903234FE02B4B9B6803F00E
:1014B4000C027B685B689B009A42EBD1254B1B684E
:1014C40003F007033A689A420CD2224B3A68D2B22C
:1014D4001A70204B1B6803F007033A689A4201D044
:1014E400012332E07B681B6803F00403002B08D05F
:1014F400194B9B6823F4E0527B68DB68164913435D
:101504008B607B681B6803F00803002B09D0124B27
:101514009B6823F460427B681B69DB000E4913431C
:101524008B6000F021F802460B4B9B681B0903F00B
:101534000F030A49CB5C22FA03F3094A1360094BEF
:101544001B681846FFF7DEF9002318461037BD461E
:1015540080BD00BF003C024000380240402000082B
:1015640000000020040000202DE9B04F90B000AF2F
:1015740000237B630023FB6300233B630023BB63E3
:10158400594B9B6803F00C03082B0DD0082B00F279
:10159400A180002B02D0042B03D09BE0534BBB63F0
:1015A4009BE0534BBB6398E04F4B5B6803F03F03F6
:1015B4007B634D4B5B6803F48003002B28D04A4BBC
:1015C4005B689B0900223B627A623B6AC3F30800B2
:1015D4000021474B03FB01F2002300FB03F31344F8
:1015E400434AA0FB0212FA620A46BA62FA6A134438
:1015F400FB627B6B0022BB61FA61D7E90623D7E962
:101604000A01FEF7E5FD02460B461346FB6353E071
:10161400354B5B689B0900223B617A613B69C3F3EC
:10162400080A4FF0000B52465B464FF000004FF0A3
:101634000001590141EAD261500102460B46B2EB66
:101644000A0863EB0B094FF000024FF000034FEA66
:10165400891343EA98634FEA8812B2EB080463EBF8
:1016640009054FF000024FF00003EB0043EA547306
:10167400E20014461D4614EB0A033B6045EB0B03E2
:101684007B604FF000024FF00003D7E90045294684
:101694008B02214643EA915321468A021046194699
:1016A4007B6B0022BB60FA60D7E90223FEF790FD52
:1016B40002460B461346FB630B4B5B681B0C03F0A3
:1016C400030301335B003B63FA6B3B6BB2FBF3F345
:1016D400BB6302E0054BBB6300BFBB6B18464037DE
:1016E400BD46BDE8B08F00BF003802400024F400BE
:1016F40040787D0180B582B000AF78607B68002BB4
:1017040001D101237BE07B685B6A002B08D17B68F5
:101714005B68B3F5827F09D07B680022DA6105E05B
:101724007B6800221A617B6800225A617B68002270
:101734009A627B6893F85130DBB2002B06D17B6848
:10174400002283F850207868FFF70CF87B680222A7
:1017540083F851207B681B681A687B681B6822F039
:1017640040021A607B685B6803F482727B689B6842
:1017740003F404431A437B68DB6803F400631A43ED
:101784007B681B6903F002031A437B685B6903F0FF
:1017940001031A437B689B6903F400731A437B6853
:1017A400DB6903F038031A437B681B6A03F0800388
:1017B40042EA03017B689B6A03F400527B681B685E
:1017C4000A431A607B689B691B0C03F004017B6865
:1017D4005B6A03F010027B681B680A435A607B68EB
:1017E4001B68DA697B681B6822F40062DA617B6833
:1017F40000225A657B68012283F851200023184691
:101804000837BD4680BD80B588B002AFF860B960C6
:101814003B601346FB800023FB75FB685B68B3F5F4
:10182400827F12D1FB689B68002B0ED1FB680422D7
:1018340083F85120FA883B6800931346BA68B96864
:10184400F86800F0F1F80346EAE0FB6893F85030DA
:10185400012B01D10223E3E0FB68012283F850202D
:10186400FFF794F83861FB6893F85130DBB2012B31
:1018740002D00223FB75CAE0BB68002B02D0FB88B0
:10188400002B02D10123FB75C1E0FB68042283F81D
:101894005120FB6800225A65FB68BA689A63FB68AA
:1018A400FA889A87FB68FA88DA87FB6800221A6349
:1018B400FB6800229A86FB680022DA86FB68002215
:1018C4001A64FB6800225A64FB689B68B3F5004FF6
:1018D4000FD1FB681B681A68FB681B6822F0400282
:1018E4001A60FB681B681A68FB681B6822F4804254
:1018F4001A60FB681B681B6803F04003402B07D089
:10190400FB681B681A68FB681B6842F040021A6097
:10191400FB68DB68002B62D12EE0FB681B689B68C8
:1019240003F00103012B15D1FB681B6803F10C02C2
:10193400FB689B6B1278D2B21A70FB689B6B5A1CC3
:10194400FB689A63FB68DB8F9BB2013B9AB2FB682E
:10195400DA8711E0FFF71AF802463B69D31A3A68AE
:101964009A4203D83B68B3F1FF3F02D13B68002B96
:1019740002D10323FB754AE0FB68DB8F9BB2002B8B
:10198400CBD131E0FB681B689B6803F00103012B9A
:1019940013D1FB681B68DA68FB689B6B92B21A80F0
:1019A400FB689B6B9A1CFB689A63FB68DB8F9BB29A
:1019B400013B9AB2FB68DA8711E0FEF7E7FF0246C3
:1019C4003B69D31A3A689A4203D83B68B3F1FF3FA4
:1019D40002D13B68002B02D10323FB7517E0FB689F
:1019E400DB8F9BB2002BCDD13A693968F86800F0DF
:1019F40045FA0346002B02D0FB6820225A65FB6897
:101A04005B6D002B02D00123FB7500E000BFFB6877
:101A1400012283F85120FB68002283F85020FB7DCB
:101A240018461837BD4680BD80B58CB000AFF8604D
:101A3400B9607A607B800123FB62002387F82B3036
:101A4400FB6893F85030012B01D102238AE1FB6833
:101A5400012283F85020FEF799FF7862FB6893F81F
:101A6400513087F82330FB685B68FB617B887B839C
:101A740097F82330012B0FD0FB69B3F5827F07D190
:101A8400FB689B68002B03D197F82330042B03D009
:101A9400022387F82B305BE1BB68002B05D07B6801
:101AA400002B02D07B88002B03D1012387F82B3035
:101AB4004EE1FB6893F85130DBB2042B03D0FB6892
:101AC400052283F85120FB6800225A65FB687A6876
:101AD4009A63FB687A88DA87FB687A889A87FB6856
:101AE400BA681A63FB687A88DA86FB687A889A8609
:101AF400FB6800221A64FB6800225A64FB681B68B6
:101B04001B6803F04003402B07D0FB681B681A686E
:101B1400FB681B6842F040021A60FB68DB68B3F59F
:101B2400006F78D1FB685B68002B02D07B8B012BA4
:101B340066D1FB681B6B1A88FB681B68DA60FB685C
:101B44001B6B9A1CFB681A63FB68DB8E9BB2013B20
:101B54009AB2FB68DA8653E0FB681B689B6803F063
:101B64000203022B1BD1FB68DB8E9BB2002B16D029
:101B7400FB6A012B13D1FB681B6B1A88FB681B687B
:101B8400DA60FB681B6B9A1CFB681A63FB68DB8ECC
:101B94009BB2013B9AB2FB68DA860023FB62FB68C6
:101BA4001B689B6803F00103012B19D1FB68DB8FD1
:101BB4009BB2002B14D0FB681B68DA68FB689B6B34
:101BC40092B21A80FB689B6B9A1CFB689A63FB6851
:101BD400DB8F9BB2013B9AB2FB68DA870123FB627D
:101BE400FEF7D4FE02467B6AD31ABA6B9A4207D830
:101BF400BB6BB3F1FF3F03D0032387F82B30A7E07F
:101C0400FB68DB8E9BB2002BA6D1FB68DB8F9BB2FB
:101C1400002BA1D17CE0FB685B68002B02D07B8B9E
:101C2400012B6BD1FB681A6BFB681B680C331278B1
:101C34001A70FB681B6B5A1CFB681A63FB68DB8E0B
:101C44009BB2013B9AB2FB68DA8657E0FB681B68DB
:101C54009B6803F00203022B1CD1FB68DB8E9BB252
:101C6400002B17D0FB6A012B14D1FB681A6BFB689D
:101C74001B680C3312781A70FB681B6B5A1CFB68C8
:101C84001A63FB68DB8E9BB2013B9AB2FB68DA866F
:101C94000023FB62FB681B689B6803F00103012BB4
:101CA40019D1FB68DB8F9BB2002B14D0FB681B6837
:101CB400DA68FB689B6BD2B21A70FB689B6B5A1C88
:101CC400FB689A63FB68DB8F9BB2013B9AB2FB68AB
:101CD400DA870123FB62FEF759FE02467B6AD31AB8
:101CE400BA6B9A4203D8BB6BB3F1FF3F02D1BB6B13
:101CF400002B03D1032387F82B3029E0FB68DB8E0C
:101D04009BB2002BA2D1FB68DB8F9BB2002B9DD131
:101D14007A6AB96BF86800F017F90346002B06D00D
:101D2400012387F82B30FB6820225A6510E0FB68FA
:101D34009B68002B0BD100237B61FB681B68DB686D
:101D44007B61FB681B689B687B617B6900E000BF6B
:101D5400FB68012283F85120FB68002283F850209D
:101D640097F82B3018463037BD4680BD80B588B013
:101D740000AFF860B9603B601346FB71FEF706FEE6
:101D84000246BB6A9B1A3A681344FB61FEF7FEFDE8
:101D9400B861394B1B685B011B0DFA6902FB03F345
:101DA4007B6154E03B68B3F1FF3F50D0FEF7EEFD9A
:101DB4000246BB69D31AFA699A4202D9FB69002B1D
:101DC4003DD1FB681B685A68FB681B6822F0E0027F
:101DD4005A60FB685B68B3F5827F11D1FB689B682E
:101DE400B3F5004F04D0FB689B68B3F5806F07D14F
:101DF400FB681B681A68FB681B6822F040021A60C3
:101E0400FB689B6AB3F5005F0FD1FB681B681A6817
:101E1400FB681B6822F400521A60FB681B681A688E
:101E2400FB681B6842F400521A60FB68012283F8C5
:101E34005120FB68002283F85020032317E07B69BC
:101E4400002B01D10023FB617B69013B7B61FB68B3
:101E54001B689A68BB681340BA689A420CBF012396
:101E64000023DBB21A46FB799A429BD10023184621
:101E74002037BD4680BD00BF0000002080B586B07D
:101E840002AFF860B9607A60FB685B68B3F5827F83
:101E940011D1FB689B68B3F5004F04D0FB689B68C5
:101EA400B3F5806F07D1FB681B681A68FB681B6871
:101EB40022F040021A60FB685B68B3F5827F2AD186
:101EC400FB689B68B3F5806F12D07B680093BB6896
:101ED40000228021F868FFF749FF0346002B2DD02C
:101EE400FB685B6D43F02002FB685A65032326E020
:101EF4007B680093BB6800220121F868FFF736FF76
:101F04000346002B1AD0FB685B6D43F02002FB688C
:101F14005A65032313E07B680093BB680022012108
:101F2400F868FFF723FF0346002B07D0FB685B6DBF
:101F340043F02002FB685A65032300E0002318469F
:101F44001037BD4680BD000080B588B002AFF86090
:101F5400B9607A601B4B1B681B4AA2FB03235B0D11
:101F64004FF47A7202FB03F37B61FB685B68B3F5A1
:101F7400827F12D17B680093BB6800228021F868BD
:101F8400FFF7F4FE0346002B16D0FB685B6D43F0AD
:101F94002002FB685A6503230FE07B69002B0AD0FB
:101FA4007B69013B7B61FB681B689B6803F08003D2
:101FB400802BF2D000E000BF002318461837BD463E
:101FC40080BD00BF00000020819F5E1602440346CE
:101FD400934200D1704703F8011BF9E770B50D4D2A
:101FE4000D4C641BA4100026A64209D10B4D0C4CC9
:101FF40000F018F8641BA4100026A64205D170BD99
:1020040055F8043B98470136EEE755F8043B9847EA
:102014000136F2E75820000858200008582000082C
:102024005C200008F8B500BFF8BC08BC9E467047A9
:0C203400F8B500BFF8BC08BC9E46704721
:102040000000000000000000010203040607080968
:08205000B4E1FF7F0100000074
:04205800B9010008C2
:04205C0095010008E2
:0C2060000024F40010000000010000004B
:040000050800087176
:00000001FF
